:020000040800F2
:10000000D80A0020B5010008811700085D13000818
:100010007D170008F9030008B91C00080000000063
:10002000000000000000000000000000AD1C0008FF
:10003000FD0300080000000085170008B11C00083F
:10004000CF010008CF010008CF010008CF01000850
:10005000CF010008CF010008CF010008CF01000840
:10006000CF010008CF010008CF010008CF01000830
:10007000CF010008CF010008CF010008CF01000820
:10008000CF010008CF010008CF010008CF01000810
:10009000CF010008CF010008CF010008CF01000800
:1000A000CF010008CF010008CF010008CF010008F0
:1000B000CF010008CF010008CF010008CF010008E0
:1000C000CF010008CF010008CF010008CF010008D0
:1000D000CF010008CF010008CF010008CF010008C0
:1000E000CF010008CF010008CF01000800F002F89E
:1000F00000F050F814A696E8000CB244B344DA4578
:1001000001D100F047F8BAE80F000FA696E83000DA
:10011000A5EB040504EB0607AAEB0704A7F101070A
:100120004FEA15154FEA3414A4F10104AC4201D38F
:1001300000F030F813F0010F18BFFB1A43F0010371
:1001400000F001F8DBE71847502A0000702A000091
:10015000103A24BF78C878C1FAD8520724BF30C8F3
:1001600030C144BF04680C60704700007047000055
:100170000023002400250026103A28BF78C1FBD8B0
:10018000520728BF30C148BF0B6070471FB51FBD65
:1001900010B510BD00F0F6F81146FFF7F7FF01F0BB
:1001A0008DFD00F014F903B4FFF7F2FF03BC00F07B
:1001B0001BF900000948804709480047FEE7FEE7B1
:1001C000FEE7FEE7FEE7FEE7FEE7FEE7FEE7FEE707
:1001D00004480549054A064B70470000B51C000855
:1001E000ED000008D8040020D80A0020D80600201E
:1001F000D806002010B5431C02E010F8011B71B1B5
:100200008107FAD14FF0013202C88C1A8C4314EAEC
:10021000C211F9D0C01A0A0603D0C01E10BDC01A00
:1002200010BD0A0401D0801E10BD0902FCD0401E82
:1002300010BD032A40F2308010F0030C00F015804E
:1002400011F8013BBCF1020F624498BF11F801CBD9
:1002500000F8013B38BF11F8013BA2F1040298BF3E
:1002600000F801CB38BF00F8013B11F0030300F0A8
:100270005780083AC0F0088051F8043B083A51F81A
:1002800004CBA0E80810F5E7121D5CBF51F8043B51
:1002900040F8043BAFF30080D20724BF11F8013BC4
:1002A00011F801CB48BF11F8012B24BF00F8013B26
:1002B00000F801CB48BF00F8012B704702F0FF03A4
:1002C00043EA032242EA024200F002B84FF0000281
:1002D00000B5134694469646203922BFA0E80C503C
:1002E000A0E80C50B1F12001BFF4F7AF090728BF17
:1002F000A0E80C5048BF0CC05DF804EB890028BF93
:1003000040F8042B08BF704748BF20F8022B11F0BB
:10031000804F18BF00F8012B704770477047704737
:1003200010B5203AC0F00B80B1E81850A0E8185082
:10033000B1E81850A0E81850203ABFF4F5AF5FEAD2
:10034000027C24BFB1E81850A0E8185044BF18C977
:1003500018C0BDE810405FEA827C24BF51F8043B1E
:1003600040F8043B08BF7047D20728BF31F8023B72
:1003700048BF11F8012B28BF20F8023B48BF00F806
:10038000012B7047754600F02BF8AE460500694614
:10039000534620F00700854618B020B5FFF718FF38
:1003A000BDE820404FF000064FF000074FF0000876
:1003B0004FF0000BAC46ACE8C009ACE8C009ACE8B3
:1003C000C009ACE8C00921F007018D46704710B59F
:1003D0000446AFF300802046BDE81040FFF7E3BEBF
:1003E000004870471800002001491820ABBEFEE706
:1003F0002600020070470000FEE700007047000082
:10040000B0B5044600F018F9054640F20000C2F20B
:1004100000000078611C18BF044400BF00F00CF914
:10042000401BA042FAD3B0BD2DE9F04F82B00E6858
:10043000002E00F0FD8041F20042C4F201020423CC
:1004400040F2004E904208BF03234FF6FF7CC4F2F7
:10045000010E009300240123C1F2100C4FF0000A9A
:100460004FF000094BE000BF41F20002C4F201026C
:10047000009F904208BF022704F00C030F229A400D
:100480002BEA020207FA03F34FEA9A051A4346F8E9
:1004900025204E6840F20C45F202DEF8082054BFD9
:1004A00022EA080242EA0802C4F20105CEF8082056
:1004B0002A68B30254BF22EA080242EA08022A600C
:1004C000B303DEF8042054BF22EA080242EA08021D
:1004D000F303CEF80420DEF800204FF0010354BFF0
:1004E00022EA080242EA0802CEF800200E680AF169
:1004F000010A36FA0AF204F1040400F0998003FAC2
:100500000AFB16EA0B08F1D04E68664512DC122E83
:1005100056D8DFE806F0350B4D495555555555551C
:100520005555555555555545510000BFD1F80C90BE
:1005300046E000BF4FF6FF72C1F2210296420FDC87
:100540000022C1F2110296421AD00022C1F2120218
:10055000964215D00022C1F22102964210D02FE01F
:100560000022C1F2220296420AD00022C1F23102D8
:10057000964205D00022C1F23202964220D100BF3D
:100580008A684AB1012A14BFC0F814B0C0F810B08C
:100590004FF0080914E000BF4FF0040910E000BF5D
:1005A000CA6802F104090BE04FF0000908E000BF3F
:1005B000CA6802F1080903E0CA6802F10C0900BF29
:1005C00002462646B8F5807F24BF0432203E1768D5
:1005D0000F25B54027EA050509FA06F635431560EB
:1005E000CA79D2067FF582AF41F21803C4F2020342
:1005F0001A68AEF57E7642F001021A601A6802F0BF
:1006000001020192019A2AF0030256F802B040F664
:100610000002C4F20102904208D040F60042C4F247
:10062000010290427FF420AF012725E7002723E74E
:1006300002B0BDE8F08F000040F2D440C2F20000EA
:1006400000687047002804BF01207047F0B581B0F2
:10065000044690F83D0028B9002084F83C0020466C
:1006600000F09AFA242084F83D002068016821F007
:1006700001010160016841F400410160016821F459
:100680000041016000F040FC636848F2A16CC0F2D8
:10069000010C40F60011C0F23D0163453CBF48F239
:1006A0008041C0F21E01884202D2012001B0F0BD9B
:1006B0004DF68361C4F21B31A0FB01122168970C37
:1006C000D1F804E04FF496762EF03F0545EA9245C6
:1006D0004D60774348F638160D6AC0F24106A7FB15
:1006E000067625F03F07634538BF960C721C3A43E7
:1006F0000A62CA6948F2A0664CF6FF77C0F20106AA
:10070000B34222EA07020BD801385B00B0FBF3F0DA
:1007100001306FF31F30042898BF04201BE000BF96
:10072000A768013857B119277B43B0FBF3F00130BC
:100730006FF31F3070B100F5804007E003EB430317
:10074000B0FBF3F001306FF31F3018B100F500403B
:1007500001E000BF01201043C8610868D4E9072305
:1007600020F0C000104318430860886848F2FF3248
:1007700004F10C0790438CCF18431043A66988609E
:10078000C86820F0FF0038433043C860086840F074
:100790000100086000202021206484F83D102063BF
:1007A00084F83E0001B0F0BD2DE9F04F83B01E4645
:1007B000924688460446FFF73FFF94F83D102029F3
:1007C00024D12168054600BF886980071AD5FFF744
:1007D00033FF401B21681A28F6D388698007F3D5B8
:1007E00000202021206384F83D1084F83E00216C15
:1007F00041F02001216484F83C00022003B0BDE8F0
:10080000F08F00BF94F83C00012803D1022003B010
:10081000BDE8F08F4FF0010984F83C900868C007EC
:1008200003D1086840F0010008600868002720F440
:1008300000600860242084F83D000020CFF6FF709F
:100840002764E06208F0FE08BAF1010F88BFD146C4
:100850004FF0A00A4FF0200B04E000BF01374F45D6
:1008600000F0A2800868002240F4807008602046F2
:100870004FF001113346009500F0D0FD21680028AB
:1008800056D1C1F81080FFF7D7FE21684B694A693D
:1008900094F83D50A02D054605D013F0020008BF86
:1008A00012F480601AD084F83DB048690A68800765
:1008B00042F400720A6045D46FF48060486100BF62
:1008C00088698007CAD5FFF7B7FE401B21681A2840
:1008D000F6D388698007F3D54AE000BFB6B100BF00
:1008E000FFF7AAFE401BB04288BF84F83DA02168F4
:1008F0004A69486994F83D30A02BD4D012F0020226
:1009000008BF10F48060EBD0CDE700BFFFF794FE86
:1009100084F83DA021684A69486994F83D30A02BCD
:10092000C1D012F00202BED110F48060EED0BAE75E
:100930000868C00544BF4FF400702064032003B072
:10094000BDE8F08F0020029048690290886902900B
:100950000298886901E000BF806980071AD5FFF717
:100960006BFE411B20681A29F6D381698907F3D5EC
:1009700000202021206384F83D1084F83E00216C83
:1009800041F02001216484F83C00012003B0BDE85F
:10099000F08F00BF202084F83D00002084F83C0048
:1009A00003B0BDE8F08F00BF202084F83D00002098
:1009B00084F83C00012003B0BDE8F08F2DE9F0433E
:1009C00083B01E46174689460446FFF735FE94F865
:1009D0003D10202924D10546206800BF8169890780
:1009E0001AD5FFF729FE411B20681A29F6D3816921
:1009F0008907F3D500202021206384F83D1084F876
:100A00003E00216C41F02001216484F83C0002206A
:100A100003B0BDE8F08300BF94F83C10012903D176
:100A2000022003B0BDE8F083012184F83C10016886
:100A3000C90703D1016841F001010160016840F27A
:100A4000020821F400610160212184F83D10102189
:100A500084F83E100021216467626685618DC0F2D2
:100A600001082185A8F10211E162E16A0A9E11F5EF
:100A7000803F18BF01291DD1016841F480710160D8
:100A800020464FF0011100223346009500F0C6FCCD
:100A900050B120680068C00544BF4FF40070206466
:100AA000012003B0BDE8F0832069B0F5804F07D185
:100AB000FE2015E00829DFD0216B1229DCD0DFE70A
:100AC000062000EAD9102168F030086108F106011B
:100AD000204632462B4600F087FD0028E0D1FF205B
:100AE000216800EA090008612046414632462B464B
:100AF00000F07AFD0028D3D10020029020684169DF
:100B0000029180690290029806E000BF20463146BB
:100B10002A4600F025FC18BB208D68B320463146DC
:100B20002A4600F0CDFDD8B9606A2168024612F865
:100B3000013B0B616262628D013A6285228D531E18
:100B400023854F697F07E1D51B04DFD0437802304E
:100B50000B616062608D01386085901E2085D5E74D
:100B6000206C04289CD12068016841F40071016068
:100B7000012003B0BDE8F0832068016841F40071F2
:100B80000160202084F83D00002084F83E0084F8B5
:100B90003C0003B0BDE8F08310B586B0016845F2B3
:100BA0000040C4F2000081424FF00001CDE9041181
:100BB000CDE9021102D006B010BD00BF41F2180409
:100BC000C4F20204216800F5384041F008012160B8
:100BD000216801F0080101910199C02102911221BF
:100BE00003910321059102A9FFF71EFC606840F400
:100BF00000106060606800F400100190019806B079
:100C000010BD000040F2000040F2D441C2F20000EA
:100C1000C2F2000100780A681044086070470000C2
:100C200080B542F20000C4F20200016841F01001F8
:100C30000160032000F07AF80F2000F005F800F0C2
:100C400027F8002080BD000070B540F20006C2F217
:100C5000000640F210013278C2F200014FF47A73BC
:100C60000968B3FBF2F20446B1FBF2F1084600F06A
:100C70005FFB0F2C4FF0010508D838B94FF0FF305B
:100C800021460022002500F025F87460284670BD3A
:100C900082B041F21800C4F202000168022241F061
:100CA00001010160016801F00101019101994168B0
:100CB00041F080514160406800F080500090009801
:100CC0000420C4F20100016862F31A61016002B0FD
:100CD0007047000010B54EF60C5CCEF2000CDCF84C
:100CE0000030C3F3022E8EF00704042C28BF042426
:100CF000BEF103034FF0FF3E0EFA04F438BF0023A9
:100D0000A14399400EFA03F39A43114300F00F02F6
:100D100000F160430901043A03F56443624400288A
:100D200048BF02F10C03197010BD00004EF60C51C3
:100D3000CEF200010A684FF6FF031A4060F30A2260
:100D400042F0806040F0FD7008607047002804BFEA
:100D5000012070472DE9F04381B042F20008C4F24F
:100D600002080446D8F800000D4600F00700814252
:100D70000CD9D8F8000020F007002843C8F800007C
:100D8000D8F8000000F00700A8426CD1206841F2BA
:100D900004098107C4F2020917D5410705D5D9F81E
:100DA000001041F4E061C9F80010010705D5D9F839
:100DB000001041F46051C9F80010D9F80010A26881
:100DC00021F0F0011143C9F80010C00742D1D8F852
:100DD000000000F0070085420CD2D8F8000020F097
:100DE00007002843C8F80000D8F8000000F007000A
:100DF000A84238D12068410707D5D9F80010E26829
:100E000021F4E0611143C9F80010000708D5D9F8B2
:100E10000000216920F4605040EAC100C9F80000D8
:100E2000D9F8002002F00C00082841F20020C0F29E
:100E30007A004DD142F68633C2F38341C0F60003F7
:100E4000595CD20338D440F60010C0F23D0048434C
:100E50003EE000BF606859F8041C022808D0012851
:100E600026D1890306D4012001B0BDE8F08300BF7C
:100E70008901F8D5D9F8001021F003010843C9F819
:100E80000000FFF7D9FB064641F28837D9F8000089
:100E9000616800F00C00B0EB810F98D0FFF7CCFB3D
:100EA000801BB842F2D9032001B0BDE8F08300BF37
:100EB0008907D8D5DEE700BFD9F8002042F6843391
:100EC000C2F34042C0F600039A5C4843B0FBF2F024
:100ED000D9F8001041F61062C1F30311C0F6000208
:100EE000515C40F2100220FA01F140F20400C2F21B
:100EF00000000068C2F200021160FFF7A5FE0020AA
:100F000001B0BDE8F083000040F2100041F204019E
:100F1000C2F20000C4F202010068096841F62062D2
:100F2000C1F30221C0F60002515CC84070470000C6
:100F3000002804BF012070472DE9F04182B004462B
:100F4000007841F20006C007C4F202060CD07068B7
:100F500000F00C00042840F081803068800303D545
:100F60006068002800F04681207880071BD57068F3
:100F700010F00C0F09D0706800F00C00082840F049
:100F800087807068C00300F183803068800703D5D4
:100F90002069012840F02E813068616920F0F80056
:100FA00040EAC10030602078000713D42078400761
:100FB0002CD4E569002D00F01881706800F00C0059
:100FC000082840F0A780012D40F00481012002B0E4
:100FD000BDE8F081A069002800F084800020C4F200
:100FE00042200121C0F88014FFF726FB054600BF10
:100FF000706A800700F1B280FFF71EFB401B0228D9
:10100000F6D9032002B0BDE8F08100BFF0695FEAC5
:10101000C00808D4F06940F08050F061F06900F039
:1010200080500090009847F20007C4F2000738682B
:10103000C00549D4386840F480703860FFF7FCFA86
:10104000054600BF3868C0053ED4FFF7F5FA401BDF
:101050006428F7D9032002B0BDE8F081706800F081
:101060000C00082803D17068C0033FF576AF6168B3
:101070003068002900F00C81B1F5A02F00F000814C
:10108000B1F5803F40F01A8140F480301CE100BF90
:101090002069002840F20000C4F2422000F088805D
:1010A00001210160FFF7C8FA054600BF30688007DC
:1010B0003FF572AFFFF7C0FA401B0228F6D90320B4
:1010C00002B0BDE8F08100BFE168306A002900F09D
:1010D0009D80052900F09280012940F0AF8040F00A
:1010E0000100B1E00020C4F242200021C0F88014C9
:1010F000FFF7A2FA054600BF706A80077FF556AF7A
:10110000FFF79AFA401B0228F6D9032002B0BDE887
:10111000F08100BF0027C4F2422700203866FFF7A5
:101120008BFA022D05460DD13068800140F1DE803A
:10113000FFF782FA401B02284FF00300F4D902B0F7
:10114000BDE8F081306880014FD5FFF775FA401B8C
:1011500002284FF00300F5D9F1E700BF40F210007C
:10116000C2F20000006844F6D351C1F26201A0FB54
:101170000101480A019000BF00BF0198411E0028EC
:1011800001913FF413AF00BF0198411E0028019167
:101190003FF40CAF00BF0198411E002801913FF4BD
:1011A00005AF00BF0198411E00280191E4D1FDE682
:1011B00000210160FFF740FA054600BF3068800754
:1011C0007FF5F1AEFFF738FA401B02284FF003001D
:1011D000F4D9B4E77068216A00F480328A4209D1F8
:1011E000616A00F47010884204D1002002B0BDE8AA
:1011F000F08100BF012002B0BDE8F08140F00400A2
:101200003062306A40F001001EE000BF20F00100B3
:101210003062306A20F004003062FFF70DFA0546B4
:1012200041F28837306A800720D5FFF705FA401B66
:10123000B8424FF00300F5D981E700BF20F001006C
:101240003062306A20F004003062FFF7F5F905469D
:1012500041F28837306A800708D4FFF7EDF9401B68
:10126000B842F7D9032002B0BDE8F081B8F1000F11
:101270003FF59FAEF06920F08050F06199E600BF25
:1012800040F480203060306840F480301CE000BFC3
:1012900020F480303060306820F480203060FFF728
:1012A000CBF90546306880037FF55EAEFFF7C4F9E1
:1012B000401B64284FF00300F4D940E720F480304D
:1012C0003060306820F480203060FFF7B5F90546C3
:1012D000306880033FF548AEFFF7AEF9401B642845
:1012E000F6D9032002B0BDE8F08100BF206AB0F556
:1012F000803F05D17168A26821F40031114371600B
:101300007168626A21F4741111430843706001200E
:101310003866FFF791F90446306880013FF565AF04
:10132000FFF78AF9001B02284FF00300F4D906E703
:10133000411E0020B0EB116F1CBF012070474EF220
:101340001002CEF2000251604EF62351CEF200019F
:10135000F0230B700721906011607047FEE70000DA
:1013600070B50368044653F8140F400711D40E46B5
:10137000481C29D086BB00BF1868400527D4FFF75A
:101380005BF9236853F8140F400737D518684007F6
:10139000F2D5002070BD00BF18684007F9D4186866
:1013A000400514D418684007F3D4186840050ED4DB
:1013B00018684007EDD41868400508D4186840073D
:1013C0004FF0000048BF70BD18684005E4D56FF4C9
:1013D00080601860042012E0154603E053F8140FF3
:1013E0004007D6D418684005F1D4FFF725F9401B13
:1013F0002368B042F2D958694007EFD42020002179
:101400002022216384F83D2084F83E10226C104392
:101410002064012084F83C1070BD00002DE9F041EB
:10142000054600681E46144601F47F0201338FB260
:1014300042D0DDF81880B2F5803F40F087804069E7
:101440003840C01BB0FA80F04009844240F0C880A8
:101450004EB924E040693840C01BB0FA80F0400922
:10146000844240F0BD80FFF7E7F8A0EB0801286850
:10147000B142EFD941693940C91BB1FA81F149093B
:101480008C42E7D19BE000BF40693840C01BB0FAF6
:1014900080F0400984424FF0000040F0A280FFF746
:1014A000CBF8286841693940C91BB1FA81F1490973
:1014B0008C42E9D183E000BFB2F5803F24D100BF68
:1014C00041693940C91BB1FA81F149098C4240F0A8
:1014D000878041693940C91BB1FA81F149098C42C1
:1014E00040F07E8041693940C91BB1FA81F1490958
:1014F0008C4275D141693940C91BB1FA81F1490962
:101500008C42DDD06CE000BF81693940C91BB1FA63
:1015100081F149098C4263D181693940C91BB1FA13
:1015200081F149098C425BD181693940C91BB1FA0B
:1015300081F149098C4253D181693940C91BB1FA03
:1015400081F149098C42DFD04AE000BF8069384010
:10155000C01BB0FA80F04009844241D146B923E073
:1015600080693840C01BB0FA80F04009844237D10E
:10157000FFF762F8A0EB08012868B142F0D9816951
:101580003940C91BB1FA81F149098C42E8D116E012
:1015900080693840C01BB0FA80F0400984424FF0A7
:1015A000000018BFBDE8F081FFF746F828688169A0
:1015B0003940C91BB1FA81F149098C42E8D10020B8
:1015C0002021286385F83D1085F83E00296C41F004
:1015D0002001296485F83C000120BDE8F08100BFAE
:1015E0000020BDE8F0810000F0B581B0044600683D
:1015F0001D4643698FB203EA0701B94202D10020B8
:1016000001B0F0BD4169164601323CD0490512D403
:101610007EB300BFFFF710F8411B2068B14203D929
:1016200041693940B9422BD141693940B942E6D0CC
:1016300041694905EED5016841F4007101606FF41C
:1016400080614161042000212022216384F83D2033
:1016500084F83E10226C1043206484F83C10012072
:1016600001B0F0BD41693940B942C8D0416949056E
:10167000E1D4FEF7E1FF206841693940B942F1D079
:101680002020E0E741694905D5D441693940B94294
:10169000B5D041694905CED441693940B942AED08F
:1016A00041694905C7D441693940B942A7D0416968
:1016B0004905C0D441693940B942E3D19FE70000F0
:1016C00070B50368044653F8140F000611D40E4693
:1016D000481C29D086BB00BF1868400527D4FEF7F8
:1016E000ABFF236853F8140F000637D518680006BF
:1016F000F2D5002070BD00BF18680006F9D4186844
:10170000400514D418680006F3D4186840050ED4B8
:1017100018680006EDD41868400508D4186800065B
:101720004FF0000048BF70BD18684005E4D56FF465
:1017300080601860042012E0154603E053F8140F8F
:101740000006D6D418684005F1D4FEF775FF401B9B
:101750002368B042F2D958690006EFD42020002156
:101760002022216384F83D2084F83E10226C10432F
:101770002064012084F83C1070BD0000FEE70000EA
:10178000FEE700007047000080B50246002840F2E6
:101790008000C2F200004FF4806118BFFF22FEF704
:1017A0008DFD80BD40F27802C2F20002508091802F
:1017B000704700002DE9F04182B040F28040C2F253
:1017C00000007821012244F62063FEF7EDFF4FF080
:1017D000000418B1204602B0BDE8F08140F2804517
:1017E0004FF42E40C2F20005ADF806000A260DF1B6
:1017F00006022846782102230096FFF7DFF84FF40F
:1018000000580DF10602284678210223ADF8068023
:101810000096FFF7D3F84FF480570DF106022846E3
:1018200078210223ADF806700096FFF7C7F84FF451
:101830003040ADF806000DF106022846782102235B
:101840000096FFF7BBF84FF44840ADF806000DF1E5
:1018500006022846782102230096FFF7AFF80DF123
:101860000602284678210223ADF806400096FFF7CD
:10187000A5F80DF10602284678210223ADF806707E
:101880000096FFF79BF84FF48040ADF806000DF18D
:1018900006022846782102230096FFF78FF84FF4BE
:1018A0000140ADF806000DF106022846782102231A
:1018B0000096FFF783F84FF47F40ADF806000DF176
:1018C00006022846782102230096FFF777F84FF4A6
:1018D0002140ADF806000DF10602284678210223CA
:1018E0000096FFF76BF84FF42640ADF806000DF1B7
:1018F00006022846782102230096FFF75FF84FF48E
:101900002840ADF806000DF1060228467821022392
:101910000096FFF753F84FF47C50ADF806000DF138
:1019200006022846782102230096FFF747F84FF475
:101930002440ADF806000DF1060228467821022366
:101940000096FFF73BF84FF45340ADF806000DF159
:1019500006022846782102230096FFF72FF80DF1A2
:101960000602284678210223ADF806400096FFF7CC
:1019700025F84FF45540ADF806000DF10602284653
:10198000782102230096FFF719F84FF47040ADF864
:1019900006000DF106022846782102230096FFF783
:1019A0000DF84FF45940ADF806000DF10602284637
:1019B000782102230096FFF701F84FF40850ADF8A4
:1019C00006000DF106022846782102230096FEF754
:1019D000F5FF4FF45A40ADF806000DF10602284617
:1019E000782102230096FEF7E9FF4FF49050ADF8FE
:1019F00006000DF106022846782102230096FEF724
:101A0000DDFF4FF45B40ADF806000DF106022846FD
:101A1000782102230096FEF7D1FF0DF10602284639
:101A200078210223ADF806800096FEF7C7FF4FF439
:101A30000D40ADF806000DF106022846782102237C
:101A40000096FEF7BBFF4FF4A050ADF806000DF175
:101A500006022846782102230096FEF7AFFF4FF4D6
:101A60002F40ADF806000DF106022846782102232A
:101A70000096FEF7A3FF4FF43850ADF806000DF1C5
:101A800006022846782102230096FEF797FF40F2CF
:101A90008000C2F200004FF48061FEF717FC00F0F6
:101AA000B5F840F27800C2F20000C0F8024001240C
:101AB000204602B0BDE8F0812DE9F04F89B040F238
:101AC0007805C2F200056B8891F8008008EB0307E7
:101AD0007F2F05D89C46AB884E78F7183F2F03D947
:101AE000002009B0BDE8F08F002E009066D02D7860
:101AF0002038B5FA85F77C09B2FA82F702907809A6
:101B00000790002D18BF01254868121BB2FA82F217
:101B1000019000275009444608950690CDE903310D
:101B200004E000BF00240137B74247D2002CF9D0AF
:101B3000DA1995B23F2DF6D80298019B704303EB5A
:101B4000400030F817A002F00700012303FA00F567
:101B50004FF4607091F8008000EA021B6FEA050EF6
:101B60000022059703E000BF0132424520D20CEB72
:101B700002061FFA86F9B9F17F0FF5D846EA0B067F
:101B800040F280000AFA02F1B6B2C2F20000090483
:101B9000835D0699DDE9077458BF87EA040103EA0B
:101BA0000E04002918BF43EA05048455DCE700BF92
:101BB0000499039B4E78059F4446B4E75FFA88F08A
:101BC00040F278016044C2F2000148805DF8240BC5
:101BD000BDE8F08F0378002B04BF0020704770B57C
:101BE00014460D46461C00BFD8B229462246FFF7D0
:101BF00063FF16F8011C884204D116F8013B002B44
:101C0000F2D10021BDE87040084670472DE9F04F41
:101C1000C1B00DF1040B40F280460BF101094FF009
:101C200000086FF07F050A24C2F200064FF0000A98
:101C300040F280008035C2F200002F184AF0B00058
:101C40008DF80500304678215A4602238DF804802D
:101C50000094FEF7B3FE304678215A460223ADF8D1
:101C600004800094FEF7AAFE4FF48050ADF8040003
:101C7000304678215A4602230094FEF79FFE40200A
:101C80008DF80400484639468022FEF7D2FA3046E5
:101C900078215A4681230094FEF790FEB5F5607FC7
:101CA0000AF1010AC4D141B0BDE8F08F70470000CD
:101CB000FEF7A8BF70470000FEE7000090B0FEF7F7
:101CC000AFFF06AC201D2421FEF700FB022006908A
:101CD00001200A9010200B90002520460D95FFF75B
:101CE00027F928B1EFF3108072B600BFFEE700BFFE
:101CF0000F20CDE9010501A80021CDE90355059587
:101D0000FFF724F820B1EFF3108072B6FEE700BFB2
:101D100041F21800C4F20200016841F6802241F04D
:101D2000040101600168002301F004010691069995
:101D300001684FF4804741F008010160006845F2F6
:101D4000004100F008000690069840F28040C2F280
:101D50000000C4F20001C0F2060280E80E00C0E9F3
:101D60000337C0E90533C0E90733FEF76BFC28B140
:101D7000EFF3108072B600BFFEE700BFFFF71AFD59
:101D80001D480DF11C0C06901BA0071D40698ECF4D
:101D90000B9006A88CE88E00FEF72CFA40F20801A2
:101DA000C2F20001097800FB01F212F1BC0F21DD43
:101DB0006FF03B0200FB112640F208044FF0800850
:101DC000C2F2000406AD80270020FFF7DDFCB8B2A8
:101DD0001421FFF7E7FC284621460122FFF7FAFE0F
:101DE000FFF714FF0A20FEF70BFB013FB742D8BFF5
:101DF0004746E9E7FEE700BF486170707920426915
:101E00007274686461792054616E6973686120003E
:101E1000000000000000000001020304060708099A
:101E200000000000010203040000000000000000A8
:101E300000000000000000000000000000000000A2
:101E40000000000000000000000000000000000C86
:101E5000000C000C000C000C000C000C000C000C22
:101E6000000C000C0000000C000C00000000000042
:101E70000000001B001B001B001B001B00000000DB
:101E80000000000000000000000000000000000052
:101E90000000000000008019801980198019C07F9F
:101EA000C07F80190033C07FC07F00330033003310
:101EB00000330000000000000000001E003F80759D
:101EC00080650074003C001E000780058065806509
:101ED0008075003F001E0004000400000000007038
:101EE00000D840D8C0D880D900730006000C801BF1
:101EF000C036C066C046C006800300000000000077
:101F00000000001E003F003300330033001E000CB1
:101F1000C03CC066806380618063C03E801C00005E
:101F2000000000000000000C000C000C000C000C75
:101F300000000000000000000000000000000000A1
:101F40000000000000000000800000010003000607
:101F500000060004000C000C000C000C000C000C2F
:101F600000040006000600030001800000200010AD
:101F70000018000C000C0004000600060006000615
:101F8000000600060004000C000C001800100020E1
:101F90000000000C002D003F001E00330000000078
:101FA0000000000000000000000000000000000031
:101FB00000000000000000000000000C000C000CFD
:101FC000000CC0FFC0FF000C000C000C000C000057
:101FD0000000000000000000000000000000000001
:101FE00000000000000000000000000000000000F1
:101FF0000000000C000C00040004000800000000B9
:102000000000000000000000000000000000001EB2
:10201000001E0000000000000000000000000000A2
:1020200000000000000000000000000000000000B0
:1020300000000000000000000000000C000C000088
:10204000000000000000000300030003000600067B
:1020500000060006000C000C000C000C0018001814
:1020600000180000000000000000001E003F0033C8
:10207000806180618061806D806D80618061806140
:102080000033003F001E00000000000000000006BA
:10209000000E001E003600260006000600060006A0
:1020A0000006000600060006000600000000000012
:1020B0000000001E003F807380618061800100038A
:1020C0000006000C001800300060807F807F000058
:1020D000000000000000001C003E006300630003DD
:1020E000000E000E00038001800180618073003FBC
:1020F000001E00000000000000000006000E000EA0
:10210000001E001E0016003600360066807F807FAD
:102110000006000600060000000000000000007F2E
:10212000007F006000600060006E007F80638001BF
:10213000800180618073003F001E000000000000ED
:102140000000001E003F803380610060006E007F51
:1021500080738061806180618033003F001E0000D9
:10216000000000000000807F807F800100030003EA
:1021700000060006000C000C000C000800180018F7
:1021800000180000000000000000001E003F8063F7
:10219000806180610021001E003F8061806180615C
:1021A0008061003F001E0000000000000000001ED3
:1021B000003F00738061806180618073803F801D7B
:1021C000800180610073003F001E000000000000DD
:1021D00000000000000000000000000C000C0000E7
:1021E00000000000000000000000000C000C0000D7
:1021F00000000000000000000000000000000000DF
:10220000000C000C00000000000000000000000CAA
:10221000000C0004000400080000000000000000A2
:1022200080008003000E003800600038000E80033C
:10223000800000000000000000000000000000001E
:10224000000000000000807F807F00000000807F91
:10225000807F00000000000000000000000000007F
:10226000000000000000000000400070001C00079B
:1022700080010007001C007000400000000000000A
:10228000000000000000001F803FC071C060C0005F
:10229000C00180030007000E000C000C0000000CC1
:1022A000000C0000000000000000001E003F803114
:1022B00080718063806F806D806D806F806700604B
:1022C0000032003E001C0000000000000000000E74
:1022D000000E001B001B001B001B80318031803F63
:1022E000803F8031C060C060C0600000000000001E
:1022F0000000007C007E0063006300630063007EDA
:10230000007E0063806180618063007F007E00004A
:10231000000000000000001E003F8031806100606E
:102320000060006000600060006080618031003FFC
:10233000001E0000000000000000007C007F006321
:102340008063806180618061806180618061006301
:102350000063007E007C0000000000000000807F21
:10236000807F0060006000600060007F007F006090
:10237000006000600060807F807F0000000000003F
:102380000000807F807F0060006000600060007F50
:10239000007F00600060006000600060006000007E
:1023A000000000000000001E003F803180610060DE
:1023B0000060006080638063806180618031803F65
:1023C000001E00000000000000008061806180614C
:1023D000806180618061807F807F806180618061B9
:1023E0008061806180610000000000000000003F0B
:1023F000003F000C000C000C000C000C000C000C4A
:10240000000C000C000C003F003F0000000000002A
:102410000000800180018001800180018001800135
:1024200080018001806180618073003F001E000098
:10243000000000000000C06080610063006600666C
:10244000006C0078007C006600660063806180613B
:10245000C06000000000000000000060006000603C
:10246000006000600060006000600060006000606C
:102470000060807F807F0000000000000000C071CD
:10248000C071C07BC07AC06AC06AC06EC064C060E0
:10249000C060C060C060C060C0600000000000009C
:1024A000000080718071807980798079806D806D85
:1024B000806D8065806780678067806380630000CF
:1024C000000000000000001E003F003380618061BA
:1024D0008061806180618061806180610033003F44
:1024E000001E0000000000000000007E007F8063EE
:1024F0008061806180618063007F007E0060006099
:102500000060006000600000000000000000001E8D
:10251000003F003380618061806180618061806103
:10252000806580670033803F401E0000000000008F
:102530000000007E007F8063806180618063007F97
:10254000007E00660063006380618061C0600000FF
:10255000000000000000000E001F803180310030BC
:102560000038001E00078003806180618031003FD9
:10257000001E0000000000000000C0FFC0FF000CB3
:10258000000C000C000C000C000C000C000C000CEB
:10259000000C000C000C0000000000000000806136
:1025A0008061806180618061806180618061806123
:1025B000806180618073003F001E00000000000009
:1025C0000000C060C060C060803180318031001B7D
:1025D000001B001B001B000E000E000E000400007C
:1025E000000000000000C0C0C0C0C0C0C0C0C0C06B
:1025F000C0CC804C804C805E805280528073806161
:1026000080610000000000000000C0C080608061A8
:102610000033003B001E000C000C001E001F003B9E
:1026200080718061C0C00000000000000000C0C0D8
:102630008061806100330033001E001E000C000C1E
:10264000000C000C000C000C000C0000000000004E
:102650000000803F803F8001000300030006000C63
:10266000000C0018001800300060807F807F0000A0
:1026700000000000000F000F000C000C000C000C0C
:10268000000C000C000C000C000C000C000C000CEA
:10269000000C000C000F000F0000001800180018BC
:1026A000000C000C000C000C0006000600060006E2
:1026B000000300030003000000000000001E001ED5
:1026C00000060006000600060006000600060006DA
:1026D000000600060006000600060006001E001E9A
:1026E0000000000C000C001E00120033003380615B
:1026F00080610000000000000000000000000000F9
:1027000000000000000000000000000000000000C9
:1027100000000000000000000000000000000000B9
:1027200000000000E0FF0000000000380018000C6E
:102730000000000000000000000000000000000099
:102740000000000000000000000000000000000089
:10275000000000000000001F803F80618001801F9A
:10276000803F80618063807FC038000000000000EF
:1027700000000060006000600060006E007F8073F9
:1027800080618061806180618073007F006E0000E5
:102790000000000000000000000000000000001E1B
:1027A000003F807380610060006080618073003F43
:1027B000001E000000000000000080018001800178
:1027C0008001801D803F80738061806180618061B5
:1027D0008073803F801D00000000000000000000AA
:1027E000000000000000001E003F00738061807F39
:1027F000807F00608071003F001E0000000000002C
:102800000000C007C00F000C000C807F807F000C10
:10281000000C000C000C000C000C000C000C000064
:10282000000000000000000000000000801D803F4C
:10283000807380618061806180618073803F801DD2
:1028400080018063007F003E000000600060006047
:102850000060006F807F8071806180618061806135
:1028600080618061806100000000000000000006BF
:10287000000600000000003E003E000600060006C4
:10288000000600060006000600060000000000002A
:102890000006000600000000003E003E00060006A4
:1028A00000060006000600060006000600060046B8
:1028B000007E003C000000600060006000608061FD
:1028C00000630066006C007C00760063006380613A
:1028D000C0600000000000000000003E003E000656
:1028E00000060006000600060006000600060006B8
:1028F00000060006000600000000000000000000C6
:1029000000000000000080DDC0FFC0CEC0CCC0CC05
:10291000C0CCC0CCC0CCC0CCC0CC000000000000FB
:1029200000000000000000000000006F807F807148
:102930008061806180618061806180618061000070
:102940000000000000000000000000000000001E69
:10295000003F807380618061806180618073003F8F
:10296000001E000000000000000000000000000049
:10297000006E007F80738061806180618061807300
:10298000007F006E006000600060006000000000DA
:1029900000000000801D803F807380618061806145
:1029A00080618073803F801D8001800180018001F3
:1029B000000000000000000000000067803F0039B8
:1029C00000300030003000300030003000300000B7
:1029D0000000000000000000000000000000001ED9
:1029E000803F80610060007F803F80018061007FC8
:1029F000001E000000000000000000000008001899
:102A00000018007F007F0018001800180018001838
:102A10000018801F800F0000000000000000000070
:102A20000000000000008061806180618061806141
:102A3000806180618063807F803D00000000000035
:102A400000000000000000000000C0608031803104
:102A50008031001B001B001B000E000E0006000052
:102A6000000000000000000000000000000080DD09
:102A700080DD80DD0055005500550077007700228D
:102A80000022000000000000000000000000000024
:102A90000000806100330033001E000C000C001E9B
:102AA00000330033806100000000000000000000DF
:102AB0000000000080618061803100330033001B22
:102AC000001B001B000E000E000E001C007C00709E
:102AD00000000000000000000000C07FC07F8001F7
:102AE00000030006000C00180030C07FC07F00000B
:102AF00000000000800380070006000600060006B4
:102B00000006000E001C001C000E00060006000659
:102B10000006000680078003000600060006000687
:102B20000006000600060006000600060006000675
:102B30000006000600060006000600060038003CFD
:102B4000000C000C000C000C000C000E000700072D
:102B5000000E000C000C000C000C000C003C0038B7
:102B600000000000000000000000000000008038AD
:102B7000807F00470000000000000000000000000F
:102B800000000000010202030405060708090A0B01
:102B90000C0D0E0F10100000B82B000800000020D4
:102BA0001800000050010008D02B00081800002079
:102BB000C00A0000700100080100000010000000C1
:102BC0000B120000281E000800127A00000000000E
:04000005080000ED02
:00000001FF
