:020000040800F2
:10000000E8060020B50100087D1100087511000800
:1000100079110008BD0200089111000800000000DD
:100020000000000000000000000000008511000832
:10003000C1020008000000008111000889110008B9
:10004000CF010008CF010008CF010008CF01000850
:10005000CF010008CF010008CF010008CF01000840
:10006000CF010008CF010008CF010008CF01000830
:10007000CF010008CF010008CF010008CF01000820
:10008000CF010008CF010008CF010008CF01000810
:10009000CF010008CF010008CF010008E5020008E9
:1000A000CF010008CF010008CF010008CF010008F0
:1000B000CF010008CF010008CF010008CF010008E0
:1000C000CF010008CF010008CF010008CF010008D0
:1000D000CF010008CF010008CF010008CF010008C0
:1000E000C5020008CF010008CF01000800F002F8A7
:1000F00000F050F814A696E8000CB244B344DA4578
:1001000001D100F047F8BAE80F000FA696E83000DA
:10011000A5EB040504EB0607AAEB0704A7F101070A
:100120004FEA15154FEA3414A4F10104AC4201D38F
:1001300000F030F813F0010F18BFFB1A43F0010371
:1001400000F001F8DBE71847F4110000141200007A
:10015000103A24BF78C878C1FAD8520724BF30C8F3
:1001600030C144BF04680C60704700007047000055
:100170000023002400250026103A28BF78C1FBD8B0
:10018000520728BF30C148BF0B6070471FB51FBD65
:1001900010B510BD00F058F81146FFF7F7FF00F05A
:1001A000F9FF00F076F803B4FFF7F2FF03BC00F0AC
:1001B0007DF800000948804709480047FEE7FEE750
:1001C000FEE7FEE7FEE7FEE7FEE7FEE7FEE7FEE707
:1001D00004480549054A064B704700008D11000888
:1001E000ED000008E8000020E8060020E8020020FA
:1001F000E80200204FF0000200B5134694469646F0
:10020000203922BFA0E80C50A0E80C50B1F1200129
:10021000BFF4F7AF090728BFA0E80C5048BF0CC0D7
:100220005DF804EB890028BF40F8042B08BF704735
:1002300048BF20F8022B11F0804F18BF00F8012BA7
:100240007047704770477047754600F02BF8AE4610
:1002500005006946534620F00700854618B020B5D2
:10026000FFF7B6FFBDE820404FF000064FF0000753
:100270004FF000084FF0000BAC46ACE8C009ACE80A
:10028000C009ACE8C009ACE8C00921F007018D46FF
:10029000704710B50446AFF300802046BDE810401B
:1002A000FFF781BF00487047100000200149182067
:1002B000ABBEFEE72600020070470000FEE700002C
:1002C0007047000080B54FF4806000F087F94FF46C
:1002D000006000F083F94FF48050BDE8804000F0EA
:1002E0007DB900004FF4007000F078B9F0B581B02E
:1002F000064600F093FA40F27007C2F200077968F0
:10030000B860411A0B29C0F0C68040F600044FF4D3
:10031000F0503946C4F2010441F80C0F00200222CB
:10032000C1E901002046CA6000F064F904F5806567
:1003300028464FF40051012200F06AFA28464FF493
:100340008041002200F064FA28464FF40041002268
:1003500000F05EFA20464FF48071002200F058FA57
:10036000B6F5007F40F09A8020464FF4007100F00F
:1003700049FA08B14420387028464FF40051002251
:1003800000F046FA28464FF48041012200F040FA7E
:1003900028464FF40041002200F03AFA20464FF47C
:1003A0008071002200F034FAB6F5007F40F08A80B8
:1003B00020464FF4007100F025FA08B12320387070
:1003C00028464FF40051002200F022FA28464FF44C
:1003D0008041002200F01CFA28464FF4004101221F
:1003E00000F016FA20464FF48071002200F010FA57
:1003F000B6F5007F7AD120464FF4007100F002FA82
:1004000008B13020387028464FF40051002200F027
:10041000FFF928464FF48041002200F0F9F9284600
:100420004FF40041002200F0F3F920464FF48071B0
:10043000012200F0EDF9B6F5007F6BD120464FF4B4
:10044000007100F0DFF908B12A20387028464FF417
:100450000051012200F0DCF928464FF480410122CE
:1004600000F0D6F928464FF40041012200F0D0F9FF
:1004700020464FF48071012200F0CAF90020C1F239
:100480001100022207F10C01C7E90402204600F026
:10049000B1F8B868786001B0F0BD00BFB6F5805F14
:1004A00074D0B6F5006F49D0B6F5806F7FF464AFB5
:1004B00020464FF4806100F0A5F900283FF45CAFBE
:1004C000432058E7B6F5805F6AD0B6F5006F3FD09D
:1004D000B6F5806F7FF474AF20464FF4806100F072
:1004E00091F900283FF46CAF392068E7B6F5805FDA
:1004F00060D0B6F5006F35D0B6F5806F7FF483AF6E
:1005000020464FF4806100F07DF900283FF47BAF76
:10051000382077E7B6F5805F56D0B6F5006F2BD060
:10052000B6F5806F92D120464FF4806100F06AF9F1
:1005300000283FF48BAF372087E700BF20464FF4F9
:10054000006100F05FF900283FF416AF422012E787
:1005500020464FF4006100F055F900283FF430AF19
:1005600036202CE720464FF4006100F04BF90028BC
:100570003FF449AF352045E720464FF4006100F0D5
:1005800041F900283FF462AF34205EE720464FF483
:10059000805100F037F900283FF4EEAE4120EAE642
:1005A00020464FF4805100F02DF900283FF408AFA9
:1005B000332004E720464FF4805100F023F900284F
:1005C0003FF421AF32201DE720464FF4805100F068
:1005D00019F900283FF43AAF312036E740F21441D0
:1005E000C4F201010A68024214BF08607047FFF7B5
:1005F0007DBE00002DE9F04F82B00E68002E00F0A5
:10060000FD8041F20042C4F20102042340F2004E98
:10061000904208BF03234FF6FF7CC4F2010E009303
:1006200000240123C1F2100C4FF0000A4FF0000922
:100630004BE000BF41F20002C4F20102009F904271
:1006400008BF022704F00C030F229A402BEA020293
:1006500007FA03F34FEA9A051A4346F825204E6835
:1006600040F20C45F202DEF8082054BF22EA0802EC
:1006700042EA0802C4F20105CEF808202A68B30253
:1006800054BF22EA080242EA08022A60B303DEF8F5
:10069000042054BF22EA080242EA0802F303CEF81B
:1006A0000420DEF800204FF0010354BF22EA0802C4
:1006B00042EA0802CEF800200E680AF1010A36FA72
:1006C0000AF204F1040400F0998003FA0AFB16EA26
:1006D0000B08F1D04E68664512DC122E56D8DFE8C2
:1006E00006F0350B4D4955555555555555555555EC
:1006F00055555545510000BFD1F80C9046E000BF5C
:100700004FF6FF72C1F2210296420FDC0022C1F2C5
:10071000110296421AD00022C1F21202964215D05E
:100720000022C1F22102964210D02FE00022C1F235
:10073000220296420AD00022C1F23102964205D02E
:100740000022C1F23202964220D100BF8A684AB12B
:10075000012A14BFC0F814B0C0F810B04FF0080957
:1007600014E000BF4FF0040910E000BFCA6802F1B6
:1007700004090BE04FF0000908E000BFCA6802F16D
:10078000080903E0CA6802F10C0900BF02462646C8
:10079000B8F5807F24BF0432203E17680F25B5408E
:1007A00027EA050509FA06F635431560CA79D20627
:1007B0007FF582AF41F21803C4F202031A68AEF566
:1007C0007E7642F001021A601A6802F0010201927C
:1007D000019A2AF0030256F802B040F60002C4F271
:1007E0000102904208D040F60042C4F20102904259
:1007F0007FF420AF012725E7002723E702B0BDE8FB
:10080000F08F00008068084018BF0120704700008A
:10081000002A08BF090401617047000040F2E000AF
:10082000C2F2000000687047002804BF0120704732
:10083000F0B581B0044690F83D0028B9002084F856
:100840003C00204600F0A2F8242084F83D002068F7
:10085000016821F001010160016841F4004101607B
:10086000016821F40041016000F05AFA636848F21F
:10087000A16CC0F2010C40F60011C0F23D016345CD
:100880003CBF48F28041C0F21E01884202D20120E2
:1008900001B0F0BD4DF68361C4F21B31A0FB011223
:1008A0002168970CD1F804E04FF496762EF03F05BE
:1008B00045EA92454D60774348F638160D6AC0F216
:1008C0004106A7FB067625F03F07634538BF960C27
:1008D000721C3A430A62CA6948F2A0664CF6FF7776
:1008E000C0F20106B34222EA07020BD801385B00CE
:1008F000B0FBF3F001306FF31F30042898BF0420E1
:100900001BE000BFA768013857B119277B43B0FB34
:10091000F3F001306FF31F3070B100F5804007E055
:1009200003EB4303B0FBF3F001306FF31F3018B15A
:1009300000F5004001E000BF01201043C8610868D5
:10094000D4E9072320F0C0001043184308608868EA
:1009500048F2FF3204F10C0790438CCF1843104348
:10096000A6698860C86820F0FF0038433043C8603B
:10097000086840F00100086000202021206484F80D
:100980003D10206384F83E0001B0F0BD10B586B084
:10099000016845F20040C4F2000081424FF00001BE
:1009A000CDE90411CDE9021102D006B010BD00BF9F
:1009B00041F21804C4F20204216800F5384041F005
:1009C00008012160216801F0080101910199C0210D
:1009D0000291122103910321059102A9FFF70AFE5A
:1009E000606840F400106060606800F400100190DE
:1009F000019806B010BD000040F2000040F2E00196
:100A0000C2F20000C2F2000100780A6810440860D7
:100A10007047000080B542F20000C4F20200016895
:100A200041F010010160032000F08CF80F2000F06D
:100A300005F800F027F8002080BD000070B540F2F6
:100A40000006C2F2000640F208013278C2F200014C
:100A50004FF47A730968B3FBF2F20446B1FBF2F18A
:100A6000084600F071FB0F2C4FF0010508D838B98B
:100A70004FF0FF3021460022002500F037F8746067
:100A8000284670BD82B041F21800C4F2020001682D
:100A9000022241F001010160016801F001010191B0
:100AA0000199416841F080514160406800F08050F8
:100AB000009000980420C4F20100016862F31A61FA
:100AC000016002B070470000002848BF704700F086
:100AD0001F01012202FA01F11C2202EAD0004EF2AB
:100AE0000012CEF2000281507047000010B54EF6A1
:100AF0000C5CCEF2000CDCF80030C3F3022E8EF05A
:100B00000704042C28BF0424BEF103034FF0FF3E6A
:100B10000EFA04F438BF0023A14399400EFA03F300
:100B20009A43114300F00F0200F160430901043AB7
:100B300003F564436244002848BF02F10C031970B6
:100B400010BD00004EF60C51CEF200010A684FF6BF
:100B5000FF031A4060F30A2242F0806040F0FD700B
:100B600008607047002804BF012070472DE9F0435A
:100B700081B042F20008C4F202080446D8F800002E
:100B80000D4600F0070081420CD9D8F8000020F093
:100B900007002843C8F80000D8F8000000F007005C
:100BA000A8426CD1206841F204098107C4F202090D
:100BB00017D5410705D5D9F8001041F4E061C9F80F
:100BC0000010010705D5D9F8001041F46051C9F8AB
:100BD0000010D9F80010A26821F0F0011143C9F803
:100BE0000010C00742D1D8F8000000F0070085428D
:100BF0000CD2D8F8000020F007002843C8F8000005
:100C0000D8F8000000F00700A84238D1206841075A
:100C100007D5D9F80010E26821F4E0611143C9F862
:100C20000010000708D5D9F80000216920F46050B1
:100C300040EAC100C9F80000D9F8002002F00C0019
:100C4000082841F20020C0F27A004DD141F22C3345
:100C5000C2F38341C0F60003595CD20338D440F696
:100C60000010C0F23D0048433EE000BF606859F804
:100C7000041C022808D0012826D1890306D40120AB
:100C800001B0BDE8F08300BF8901F8D5D9F80010A4
:100C900021F003010843C9F80000FFF7BFFD064635
:100CA00041F28837D9F80000616800F00C00B0EB21
:100CB000810F98D0FFF7B2FD801BB842F2D9032014
:100CC00001B0BDE8F08300BF8907D8D5DEE700BFDB
:100CD000D9F8002041F22A33C2F34042C0F60003A3
:100CE0009A5C4843B0FBF2F0D9F8001041F212329E
:100CF000C1F30311C0F60002515C40F2080220FA71
:100D000001F140F20400C2F200000068C2F20002E9
:100D10001160FFF793FE002001B0BDE8F0830000F2
:100D200040F2080041F20401C2F20000C4F20201E4
:100D30000068096841F22232C1F30221C0F60002C4
:100D4000515CC84070470000002804BF0120704774
:100D50002DE9F04182B00446007841F20006C00758
:100D6000C4F202060CD0706800F00C00042840F0B9
:100D700081803068800303D56068002800F04681D8
:100D8000207880071BD5706810F00C0F09D07068B0
:100D900000F00C00082840F087807068C00300F164
:100DA00083803068800703D52069012840F02E81B8
:100DB0003068616920F0F80040EAC10030602078B6
:100DC000000713D4207840072CD4E569002D00F0EB
:100DD0001881706800F00C00082840F0A780012DF1
:100DE00040F00481012002B0BDE8F081A069002834
:100DF00000F084800020C4F242200121C0F8801459
:100E0000FFF70CFD054600BF706A800700F1B28055
:100E1000FFF704FD401B0228F6D9032002B0BDE80D
:100E2000F08100BFF0695FEAC00808D4F06940F0C3
:100E30008050F061F06900F080500090009847F217
:100E40000007C4F200073868C00549D4386840F488
:100E500080703860FFF7E2FC054600BF3868C005C7
:100E60003ED4FFF7DBFC401B6428F7D9032002B017
:100E7000BDE8F081706800F00C00082803D17068AC
:100E8000C0033FF576AF61683068002900F00C813F
:100E9000B1F5A02F00F00081B1F5803F40F01A813C
:100EA00040F480301CE100BF2069002840F20000BF
:100EB000C4F2422000F0888001210160FFF7AEFCFF
:100EC000054600BF306880073FF572AFFFF7A6FC0C
:100ED000401B0228F6D9032002B0BDE8F08100BF14
:100EE000E168306A002900F09D80052900F09280B9
:100EF000012940F0AF8040F00100B1E00020C4F2D1
:100F000042200021C0F88014FFF788FC054600BF8E
:100F1000706A80077FF556AFFFF780FC401B022800
:100F2000F6D9032002B0BDE8F08100BF0027C4F26B
:100F3000422700203866FFF771FC022D05460DD1CF
:100F40003068800140F1DE80FFF768FC401B02281A
:100F50004FF00300F4D902B0BDE8F08130688001A1
:100F60004FD5FFF75BFC401B02284FF00300F5D97B
:100F7000F1E700BF40F20800C2F20000006844F64A
:100F8000D351C1F26201A0FB0101480A019000BFE8
:100F900000BF0198411E002801913FF413AF00BF2C
:100FA0000198411E002801913FF40CAF00BF019849
:100FB000411E002801913FF405AF00BF0198411E7A
:100FC00000280191E4D1FDE600210160FFF726FC35
:100FD000054600BF306880077FF5F1AEFFF71EFCC5
:100FE000401B02284FF00300F4D9B4E77068216A6F
:100FF00000F480328A4209D1616A00F4701088429C
:1010000004D1002002B0BDE8F08100BF012002B091
:10101000BDE8F08140F004003062306A40F0010029
:101020001EE000BF20F001003062306A20F00400B2
:101030003062FFF7F3FB054641F28837306A8007DC
:1010400020D5FFF7EBFB401BB8424FF00300F5D96A
:1010500081E700BF20F001003062306A20F0040018
:101060003062FFF7DBFB054641F28837306A8007C4
:1010700008D4FFF7D3FB401BB842F7D9032002B0D6
:10108000BDE8F081B8F1000F3FF59FAEF06920F0A8
:101090008050F06199E600BF40F4802030603068F5
:1010A00040F480301CE000BF20F4803030603068B5
:1010B00020F480203060FFF7B1FB054630688003E4
:1010C0007FF55EAEFFF7AAFB401B64284FF00300DC
:1010D000F4D940E720F480303060306820F480207C
:1010E0003060FFF79BFB0546306880033FF548AE54
:1010F000FFF794FB401B6428F6D9032002B0BDE83B
:10110000F08100BF206AB0F5803F05D17168A26808
:1011100021F40031114371607168626A21F4741125
:1011200011430843706001203866FFF777FB0446DF
:10113000306880013FF565AFFFF770FB001B0228A8
:101140004FF00300F4D906E7411E0020B0EB116F09
:101150001CBF012070474EF21002CEF20002516017
:101160004EF62351CEF20001F0230B700721906060
:1011700011607047FEE70000FEE70000FEE7000098
:101180007047000070470000FFF736BC7047000052
:10119000FEE7000090B0FFF73DFC06AC201D2421C7
:1011A000FFF728F80220069001200A9010200B90EB
:1011B000002520460D95FFF7C7FD28B1EFF31080FD
:1011C00072B600BFFEE700BF0F20CDE9010501A800
:1011D0000021CDE903550595FFF7C4FC20B1EFF3DD
:1011E000108072B6FEE700BF002741F21800CDE97B
:1011F0000877CDE90677C4F20200016840F600489E
:1012000041F0080101600168C4F2010801F0080121
:10121000019101990168002241F004010160006818
:101220004FF4604100F004000190019840464FF4F3
:101230006046FFF7EDFAA8F5806A50464FF48071DA
:1012400000224FF48079FFF7E3FA069606AE0124F8
:10125000022540463146CDE907470995FFF7CAF90F
:1012600050463146CDE90694CDE90875FFF7C2F93D
:101270004FF4F05006900020C1F21100CDE90707AD
:1012800050463146FFF7B6F9172000210022FFF73C
:101290002DFC1720FFF718FC282000210022FFF763
:1012A00025FC2820FFF710FC40F28C00A8F53841FF
:1012B000C2F2000048F2A0624FF48043C0F2010283
:1012C00080E88600C0E90373C0E90577C0E90777C5
:1012D000FFF7AAFA20B1EFF3108072B6FEE700BF65
:1012E00040464FF400510122FFF792FA40464FF476
:1012F00080410122FFF78CFA40464FF40041012261
:10130000FFF786FA50464FF480710122FFF780FA0A
:10131000FEE70000000000000000010203040607D1
:101320000809000000000102030401020203040591
:10133000060708090A0B0C0D0E0F101060130008A9
:101340000000002010000000500100087013000889
:1013500010000020D8060000700100080000000006
:10136000010000001000000000127A0000000000E0
:04000005080000ED02
:00000001FF
